{
  "transactions": [
    {
      "hash": "0xd05fd774d6ff2ad90563161200022372a359f46f4c72bd5e2585e10a2814ad26",
      "transactionType": "CALL",
      "contractName": null,
      "contractAddress": "0x134bd50d5347ee1ad950dc79b10d17bd1048c7a1",
      "function": "approve(address,uint256)",
      "arguments": [
        "0xcB76bF429B49397363c36123DF9c2F93627e4f92",
        "1000000000000000000000"
      ],
      "transaction": {
        "from": "0x07edff51d7ac57a6da659be761dd28860a1342fd",
        "to": "0x134bd50d5347ee1ad950dc79b10d17bd1048c7a1",
        "gas": "0xfd42",
        "value": "0x0",
        "input": "0x095ea7b3000000000000000000000000cb76bf429b49397363c36123df9c2f93627e4f9200000000000000000000000000000000000000000000003635c9adc5dea00000",
        "nonce": "0x5",
        "chainId": "0x2105"
      },
      "additionalContracts": [],
      "isFixedGasLimit": false
    },
    {
      "hash": "0x85f4076f2bd4c035aace02c809549d0231d05a9d844bba3198e2cdd816f462d0",
      "transactionType": "CALL",
      "contractName": null,
      "contractAddress": "0xcb76bf429b49397363c36123df9c2f93627e4f92",
      "function": "deposit(address,uint256)",
      "arguments": [
        "0x134bd50D5347eE1aD950Dc79B10d17bD1048c7A1",
        "1000000000000000000000"
      ],
      "transaction": {
        "from": "0x07edff51d7ac57a6da659be761dd28860a1342fd",
        "to": "0xcb76bf429b49397363c36123df9c2f93627e4f92",
        "gas": "0x1c610",
        "value": "0x0",
        "input": "0x47e7ef24000000000000000000000000134bd50d5347ee1ad950dc79b10d17bd1048c7a100000000000000000000000000000000000000000000003635c9adc5dea00000",
        "nonce": "0x6",
        "chainId": "0x2105"
      },
      "additionalContracts": [],
      "isFixedGasLimit": false
    },
    {
      "hash": "0xa241b51e0b28e44ee27f26a27d6275d6ab37c84cd87622aabfad7ef5ccaa206d",
      "transactionType": "CALL",
      "contractName": null,
      "contractAddress": "0xcb76bf429b49397363c36123df9c2f93627e4f92",
      "function": "withdraw(address,uint256)",
      "arguments": [
        "0x134bd50D5347eE1aD950Dc79B10d17bD1048c7A1",
        "500000000000000000000"
      ],
      "transaction": {
        "from": "0x07edff51d7ac57a6da659be761dd28860a1342fd",
        "to": "0xcb76bf429b49397363c36123df9c2f93627e4f92",
        "gas": "0x1187d",
        "value": "0x0",
        "input": "0xf3fef3a3000000000000000000000000134bd50d5347ee1ad950dc79b10d17bd1048c7a100000000000000000000000000000000000000000000001b1ae4d6e2ef500000",
        "nonce": "0x7",
        "chainId": "0x2105"
      },
      "additionalContracts": [],
      "isFixedGasLimit": false
    }
  ],
  "receipts": [
    {
      "status": "0x1",
      "cumulativeGasUsed": "0xcc0fd6",
      "logs": [
        {
          "address": "0x134bd50d5347ee1ad950dc79b10d17bd1048c7a1",
          "topics": [
            "0x8c5be1e5ebec7d5bd14f71427d1e84f3dd0314c0f7b2291e5b200ac8c7c3b925",
            "0x00000000000000000000000007edff51d7ac57a6da659be761dd28860a1342fd",
            "0x000000000000000000000000cb76bf429b49397363c36123df9c2f93627e4f92"
          ],
          "data": "0x00000000000000000000000000000000000000000000003635c9adc5dea00000",
          "blockHash": "0x97dc797d244cfbf829f8d2ff513f539ef6308826795d4e9c2566993c0e61a87e",
          "blockNumber": "0x1f7a707",
          "blockTimestamp": "0x6879aaf1",
          "transactionHash": "0xd05fd774d6ff2ad90563161200022372a359f46f4c72bd5e2585e10a2814ad26",
          "transactionIndex": "0x58",
          "logIndex": "0x162",
          "removed": false
        }
      ],
      "logsBloom": "0x00000000000000000000000000000000000000000000008000000000000000000000000000000000000000000000000000000000000000000000000000200000000000000000400000000000000000000000000000080000000000000000000000000080000000000000000000000000000000000000000000000000000000000000000000000000000000008000000000000010000000404000000000000000020000000000000000000000000000000000000000000000000000000000000000000000000100000000000000000000000000000000000000000000000000000010000000000000000000000000000000000000000000000000000000000000",
      "type": "0x2",
      "transactionHash": "0xd05fd774d6ff2ad90563161200022372a359f46f4c72bd5e2585e10a2814ad26",
      "transactionIndex": "0x58",
      "blockHash": "0x97dc797d244cfbf829f8d2ff513f539ef6308826795d4e9c2566993c0e61a87e",
      "blockNumber": "0x1f7a707",
      "gasUsed": "0xb75c",
      "effectiveGasPrice": "0xf0481",
      "from": "0x07edff51d7ac57a6da659be761dd28860a1342fd",
      "to": "0x134bd50d5347ee1ad950dc79b10d17bd1048c7a1",
      "contractAddress": null,
      "l1BaseFeeScalar": "0x8dd",
      "l1BlobBaseFee": "0x1",
      "l1BlobBaseFeeScalar": "0x101c12",
      "l1Fee": "0x61361e6e7",
      "l1GasPrice": "0x1ac6ecbbb",
      "l1GasUsed": "0x640"
    },
    {
      "status": "0x1",
      "cumulativeGasUsed": "0xcd5893",
      "logs": [
        {
          "address": "0x134bd50d5347ee1ad950dc79b10d17bd1048c7a1",
          "topics": [
            "0xddf252ad1be2c89b69c2b068fc378daa952ba7f163c4a11628f55a4df523b3ef",
            "0x00000000000000000000000007edff51d7ac57a6da659be761dd28860a1342fd",
            "0x000000000000000000000000cb76bf429b49397363c36123df9c2f93627e4f92"
          ],
          "data": "0x00000000000000000000000000000000000000000000003635c9adc5dea00000",
          "blockHash": "0x97dc797d244cfbf829f8d2ff513f539ef6308826795d4e9c2566993c0e61a87e",
          "blockNumber": "0x1f7a707",
          "blockTimestamp": "0x6879aaf1",
          "transactionHash": "0x85f4076f2bd4c035aace02c809549d0231d05a9d844bba3198e2cdd816f462d0",
          "transactionIndex": "0x59",
          "logIndex": "0x163",
          "removed": false
        },
        {
          "address": "0xcb76bf429b49397363c36123df9c2f93627e4f92",
          "topics": [
            "0x5548c837ab068cf56a2c2479df0882a4922fd203edb7517321831d95078c5f62",
            "0x00000000000000000000000007edff51d7ac57a6da659be761dd28860a1342fd",
            "0x000000000000000000000000134bd50d5347ee1ad950dc79b10d17bd1048c7a1"
          ],
          "data": "0x00000000000000000000000000000000000000000000003635c9adc5dea00000",
          "blockHash": "0x97dc797d244cfbf829f8d2ff513f539ef6308826795d4e9c2566993c0e61a87e",
          "blockNumber": "0x1f7a707",
          "blockTimestamp": "0x6879aaf1",
          "transactionHash": "0x85f4076f2bd4c035aace02c809549d0231d05a9d844bba3198e2cdd816f462d0",
          "transactionIndex": "0x59",
          "logIndex": "0x164",
          "removed": false
        }
      ],
      "logsBloom": "0x00000000000000000000000000000000000000000000008000000000000000000000008000000000000000000000000000008000000002000000000040000000000000000008400000100008000000000000000000080000400000000000000000000080000000000200000000000000000000000000000000000010000000000000000000000000000000008000000000000010000000404000000000000000000000000000000000000000000000000000000000000000000000000000000000000002000100000000000000000000000000000000000000000000000000000000000000000000400000000000000000000000000000000000000000000000",
      "type": "0x2",
      "transactionHash": "0x85f4076f2bd4c035aace02c809549d0231d05a9d844bba3198e2cdd816f462d0",
      "transactionIndex": "0x59",
      "blockHash": "0x97dc797d244cfbf829f8d2ff513f539ef6308826795d4e9c2566993c0e61a87e",
      "blockNumber": "0x1f7a707",
      "gasUsed": "0x148bd",
      "effectiveGasPrice": "0xf0481",
      "from": "0x07edff51d7ac57a6da659be761dd28860a1342fd",
      "to": "0xcb76bf429b49397363c36123df9c2f93627e4f92",
      "contractAddress": null,
      "l1BaseFeeScalar": "0x8dd",
      "l1BlobBaseFee": "0x1",
      "l1BlobBaseFeeScalar": "0x101c12",
      "l1Fee": "0x61361e6e7",
      "l1GasPrice": "0x1ac6ecbbb",
      "l1GasUsed": "0x640"
    },
    {
      "status": "0x1",
      "cumulativeGasUsed": "0xce185d",
      "logs": [
        {
          "address": "0x134bd50d5347ee1ad950dc79b10d17bd1048c7a1",
          "topics": [
            "0xddf252ad1be2c89b69c2b068fc378daa952ba7f163c4a11628f55a4df523b3ef",
            "0x000000000000000000000000cb76bf429b49397363c36123df9c2f93627e4f92",
            "0x00000000000000000000000007edff51d7ac57a6da659be761dd28860a1342fd"
          ],
          "data": "0x00000000000000000000000000000000000000000000001b1ae4d6e2ef500000",
          "blockHash": "0x97dc797d244cfbf829f8d2ff513f539ef6308826795d4e9c2566993c0e61a87e",
          "blockNumber": "0x1f7a707",
          "blockTimestamp": "0x6879aaf1",
          "transactionHash": "0xa241b51e0b28e44ee27f26a27d6275d6ab37c84cd87622aabfad7ef5ccaa206d",
          "transactionIndex": "0x5a",
          "logIndex": "0x165",
          "removed": false
        },
        {
          "address": "0xcb76bf429b49397363c36123df9c2f93627e4f92",
          "topics": [
            "0x9b1bfa7fa9ee420a16e124f794c35ac9f90472acc99140eb2f6447c714cad8eb",
            "0x00000000000000000000000007edff51d7ac57a6da659be761dd28860a1342fd",
            "0x000000000000000000000000134bd50d5347ee1ad950dc79b10d17bd1048c7a1"
          ],
          "data": "0x00000000000000000000000000000000000000000000001b1ae4d6e2ef500000",
          "blockHash": "0x97dc797d244cfbf829f8d2ff513f539ef6308826795d4e9c2566993c0e61a87e",
          "blockNumber": "0x1f7a707",
          "blockTimestamp": "0x6879aaf1",
          "transactionHash": "0xa241b51e0b28e44ee27f26a27d6275d6ab37c84cd87622aabfad7ef5ccaa206d",
          "transactionIndex": "0x5a",
          "logIndex": "0x166",
          "removed": false
        }
      ],
      "logsBloom": "0x00000000000000000000000000000000000000000000008000000000000000000000008000000000000000000000000000008000000000000000000000000000000000000000400000100008000000000000000000080000400000000000000000000080000000000200000000000000000000000000000000000010400000000000000000000000000000008000000000000010000000404000000000000000000000000000400000000000000000000000000000000000000000000000000000000002000100000000000000000000000000000000000000000000000000000000000000000000400000000000000000000000000000008000000000000000",
      "type": "0x2",
      "transactionHash": "0xa241b51e0b28e44ee27f26a27d6275d6ab37c84cd87622aabfad7ef5ccaa206d",
      "transactionIndex": "0x5a",
      "blockHash": "0x97dc797d244cfbf829f8d2ff513f539ef6308826795d4e9c2566993c0e61a87e",
      "blockNumber": "0x1f7a707",
      "gasUsed": "0xbfca",
      "effectiveGasPrice": "0xf0481",
      "from": "0x07edff51d7ac57a6da659be761dd28860a1342fd",
      "to": "0xcb76bf429b49397363c36123df9c2f93627e4f92",
      "contractAddress": null,
      "l1BaseFeeScalar": "0x8dd",
      "l1BlobBaseFee": "0x1",
      "l1BlobBaseFeeScalar": "0x101c12",
      "l1Fee": "0x61361e6e7",
      "l1GasPrice": "0x1ac6ecbbb",
      "l1GasUsed": "0x640"
    }
  ],
  "libraries": [],
  "pending": [],
  "returns": {},
  "timestamp": 1752804080,
  "chain": 8453,
  "commit": "f44f615"
}